:020000040800F2
:1000000000200020054B0008E9060008F50600085E
:10001000FD060008050700080D07000800000000A5
:1000200000000000000000000000000015070008AC
:1000300021070008000000002D070008390700080C
:10004000554B0008554B0008554B0008554B000810
:10005000554B0008554B0008554B0008554B000800
:10006000554B0008554B0008554B0008554B0008F0
:10007000554B0008554B0008554B0008554B0008E0
:10008000554B0008554B0008554B00080000000078
:10009000000000000000000000000000554B0008B8
:1000A000554B0008554B0008554B0008554B0008B0
:1000B000554B0008554B0008554B0008554B0008A0
:1000C000554B0008554B0008554B0008554B000890
:1000D000554B0008554B0008554B0008554B000880
:1000E000554B0008554B0008554B00080000000018
:1000F0000000000000000000000000000000000000
:1001000000000000000000000000000000000000EF
:100110000000000000000000554B0008554B00088F
:1001200000000000000000000000000000000000CF
:1001300000000000000000000000000000000000BF
:1001400000000000000000000000000000000000AF
:10015000000000000000000000000000000000009F
:10016000000000000000000000000000000000008F
:10017000000000000000000000000000000000007F
:10018000000000000000000000000000000000006F
:10019000000000000000000000000000000000005F
:1001A000000000000000000000000000000000004F
:1001B000000000000000000000000000000000003F
:1001C0000000000000000000000000005FF808F1DF
:1001D00010B540F22C54C2F20004237863B940F207
:1001E0000000C0F2000028B144F65C30C0F6000008
:1001F000AFF300800121217010BD00BF08B540F2AF
:100200000003C0F200034BB144F65C3040F23051C1
:10021000C0F60000C2F20001AFF3008040F22C50A3
:10022000C2F20000016829B140F20003C0F20003ED
:1002300003B1984708BD00BF80B483B000AF7860B9
:100240007B68002B0CBF00220122D2B203F1FF33E6
:100250007B60002AF4D107F10C07BD4680BC7047D3
:1002600080B584B000AFF860B9607A60FB689BB27B
:10027000C3F1FF039AB240F27C53C2F20003DA806A
:100280004FF0804040F27C51C2F2000102F002F8CF
:100290004FF080404FF0080102F016FEBB689BB2A1
:1002A000C3F1FF039AB240F27C53C2F20003DA803A
:1002B0004FF48060C4F2000040F27C51C2F20001B1
:1002C00001F0E8FF4FF48060C4F200004FF0080135
:1002D00002F0FAFD7B689BB2C3F1FF039AB240F2D1
:1002E0007C53C2F20003DA804FF48060C4F2000055
:1002F00040F27C51C2F2000101F038FF4FF48060FF
:10030000C4F200004FF0080102F0C2FD07F110072F
:10031000BD4680BD80B584B000AF07F10403184628
:100320004FF0020104F0DEFB00F0CAF800F0D8F84C
:1003300000F0C0F800F024F903F0C0FE014648F2D6
:100340008103C8F2800383FB01235B184FEAE312A9
:100350004FEAE173D21A13464FEA03239B1ACA1AD3
:100360001346FB8103F0AAFE014648F28103C8F25E
:10037000800383FB01235B184FEAE3124FEAE1732A
:10038000D21A13464FEA03239B1ACA1A1346BB819B
:1003900003F094FE014648F28103C8F2800383FB18
:1003A00001235B184FEAE3124FEAE173D21A1346B6
:1003B0004FEA03239B1ACA1A13467B8103F07EFE81
:1003C000014640F64303C8F2214383FB01235B1837
:1003D0004FEA23124FEAE173D21A13464FEA43134E
:1003E0009B1ACA1A92B2FB89D3189BB2A3F10F03CE
:1003F000FB8103F063FE014640F64303C8F221434C
:1004000083FB01235B184FEA23124FEAE173D21AF0
:1004100013464FEA43139B1ACA1A92B2BB89D318E8
:100420009BB2A3F10F03BB8103F048FE014640F6E7
:100430004303C8F2214383FB01235B184FEA2312D5
:100440004FEAE173D21A13464FEA43139B1ACA1AB2
:1004500092B27B89D3189BB2A3F10F037B81FB89F6
:100460005F2B28BF5F23FB81BB895F2B28BF5F23E6
:10047000BB817B895F2B28BF5F237B81FB892F2B6F
:1004800038BF2F23FB81BB892F2B38BF2F23BB8184
:100490007B892F2B38BF2F237B81F989BA897B89F0
:1004A000084611461A46FFF7DBFE48F6FF70FFF7D5
:1004B000C3FE83E780B400AFBD4680BC704700BF79
:1004C00080B500AF40F60D004FF0010101F006FBD2
:1004D0004FF003004FF0010101F02AFB80BD00BF87
:1004E00080B582B000AF4FF00103BB804FF04803EE
:1004F000FB714FF40060C4F2010007F104031946D8
:1005000000F050FC4FF40060C4F201004FF0010114
:1005100000F036FD0346012B14BF00230123DBB29C
:10052000002B29D04FF03803BB804FF01803FB712C
:100530004FF00303BB714FF44060C4F2010007F1B8
:100540000403194600F02EFC4FF40070C0F2300096
:100550004FF0010100F00AFE4FF48070C0F2180065
:100560004FF0010100F002FE4FF40060C0F21A00EB
:100570004FF0010100F0FAFD07F10807BD4680BD0C
:1005800080B500AF40F28C53C2F200034FF0FF027F
:100590009A8040F28C53C2F200034FF000021A809E
:1005A00040F28C53C2F200034FF00002DA8040F2B6
:1005B0008C53C2F200034FF060025A804FF4305067
:1005C000C4F2010040F28C51C2F2000101F040FD82
:1005D0004FF0804040F28C51C2F2000101F038FD32
:1005E0004FF48060C4F2000040F28C51C2F200016E
:1005F00001F02EFD40F27C53C2F200034FF0600286
:100600001A8040F27C53C2F200034FF001025A807C
:1006100040F27C53C2F200034FF000021A8140F214
:100620007C53C2F200034FF00002DA804FF43050E6
:10063000C4F201004FF0010102F0AAFB4FF080402C
:100640004FF0010102F0A4FB4FF48060C4F20000FF
:100650004FF0010102F09CFB4FF43050C4F2010056
:100660004FF0010102F014F94FF080404FF001010A
:1006700002F00EF94FF48060C4F200004FF0010167
:1006800002F006F94FF43050C4F201004FF00101BE
:1006900002F01EF94FF080404FF0010102F018F90E
:1006A0004FF48060C4F200004FF0010102F010F935
:1006B00080BD00BF80B485B000AFF860B9607A60DB
:1006C0003B60FEE780B584B000AFF860B9607A6047
:1006D000F868B9684FF000027B68FFF7EBFF07F19D
:1006E0001007BD4680BD00BF80B400AFBD4680BCD2
:1006F000704700BF80B400AFFEE700BF80B400AF1A
:10070000FEE700BF80B400AFFEE700BF80B400AFDB
:10071000FEE700BF80B400AFBD4680BC704700BF9D
:1007200080B400AFBD4680BC704700BF80B400AF4E
:10073000BD4680BC704700BF80B400AFBD4680BCE2
:10074000704700BF80B483B000AF7860396040F27A
:100750009C53C2F200034FF016021A604FF0FF33B1
:10076000184607F10C07BD4680BC704780B483B0C3
:1007700000AF7860FEE700BF80B400AF4FF0010328
:100780001846BD4680BC704780B400AF40F2985315
:10079000C2F200031B681846BD4680BC704700BF0C
:1007A00080B500AF03F0F0FA0346184680BD00BFE5
:1007B00090B585B000AF786040F29853C2F2000364
:1007C0001B68002B08D140F29853C2F2000340F29C
:1007D000A052C2F200021A6040F29853C2F2000323
:1007E0001B68FB6040F29853C2F200031A687B68F2
:1007F000D418FFF7D5FF03469C4201D903F0FEFB56
:1008000040F29853C2F200031A687B68D21840F293
:100810009853C2F200031A60FB68184607F11407E8
:10082000BD4690BD80B483B000AF78604FF0FF3319
:10083000184607F10C07BD4680BC704780B483B0F2
:1008400000AF786039603B684FF400525A604FF057
:100850000003184607F10C07BD4680BC704700BF77
:1008600080B485B000AFF860B9607A604FF00003E3
:10087000184607F11407BD4680BC704780B485B0A8
:1008800000AFF860B9607A604FF00003184607F1D6
:100890001407BD4680BC704780B487B000AFF860D5
:1008A000B9607A604FF000037B6103E07B6903F17C
:1008B00001037B617A697B689A42F7DB7B681846A3
:1008C00007F11C07BD4680BC704700BF80B582B0F1
:1008D00000AF78603960386803F000FD03461846C1
:1008E00007F10807BD4680BD80B483B000AF7860D3
:1008F0004FF00103184607F10C07BD4680BC704756
:1009000080B500AF4FF48053C4F202034FF480521D
:10091000C4F20202126842F001021A604FF48052DF
:10092000C4F202024FF48053C4F2020359684FF03C
:100930000003CFF6FF030B4053604FF48053C4F223
:1009400002034FF48052C4F20202126822F0847251
:1009500022F480321A604FF48053C4F202034FF441
:100960008052C4F20202126822F480221A604FF40C
:100970008053C4F202034FF48052C4F20202526860
:1009800022F4FE025A604FF48053C4F202034FF483
:100990001F029A604FF48053C4F202034FF000022A
:1009A000DA6200F0A7F84FF46D43CEF200034FF087
:1009B00000629A6080BD00BF80B485B000AF4FF088
:1009C0000003FB604FF00003BB604FF000037B604F
:1009D0004FF000033B604FF48053C4F202035B68A6
:1009E00003F00C03FB60FB68042B0DD0082B15D023
:1009F000002B53D140F20453C2F200034FF4905243
:100A0000C0F27A021A6053E040F20453C2F20003CB
:100A10004FF49052C0F27A021A6049E04FF48053CA
:100A2000C4F202035B6803F47013BB604FF480539D
:100A3000C4F202035B6803F480337B60BB684FEA57
:100A4000934303F10203BB607B68002B0CD1BA68AF
:100A50004FF41063C0F23D0303FB02F240F2045373
:100A6000C2F200031A6023E04FF48053C4F2020381
:100A7000DB6A03F00F0303F101033B604FF4905373
:100A8000C0F27A033A68B3FBF2F3BA6802FB03F2EE
:100A900040F20453C2F200031A6009E040F204532A
:100AA000C2F200034FF49052C0F27A021A6000BF03
:100AB0004FF48053C4F202035B6803F0F0034FEA83
:100AC000131240F20853C2F200039B5CDBB2FB60DE
:100AD00040F20453C2F200031A68FB6822FA03F2E0
:100AE00040F20453C2F200031A6007F11407BD4636
:100AF00080BC704780B500AF00F002F880BD00BF39
:100B000080B483B000AF4FF000037B604FF0000370
:100B10003B604FF48053C4F202034FF48052C4F29E
:100B20000202126842F480321A604FF48053C4F219
:100B300002031B6803F400333B607B6803F101038D
:100B40007B603B68002B03D17B68B3F5A06FECD1D1
:100B50004FF48053C4F202031B6803F40033002BEC
:100B600003D04FF001033B6002E04FF000033B6015
:100B70003B68012B6DD14FF48053C4F202034FF454
:100B80008052C4F2020252685A604FF48053C4F299
:100B900002034FF48052C4F2020252685A604FF4CA
:100BA0008053C4F202034FF48052C4F2020252682E
:100BB0005A604FF48053C4F202034FF48052C4F2DF
:100BC0000202526822F47C125A604FF48053C4F23D
:100BD00002034FF48052C4F20202526842F49812A7
:100BE0005A604FF48053C4F202034FF48052C4F2AF
:100BF0000202126842F080721A6000BF4FF4805304
:100C0000C4F202031B6803F00073002BF6D04FF40C
:100C10008053C4F202034FF48052C4F202025268BD
:100C200022F003025A604FF48053C4F202034FF4DF
:100C30008052C4F20202526842F002025A6000BFBF
:100C40004FF48053C4F202035B6803F00C03082BDB
:100C5000F6D107F10C07BD4680BC704780B582B065
:100C600000AF78607A684FF40063C4F201039A42DF
:100C70000CD14FF004004FF0010100F083FF4FF062
:100C800004004FF0000100F07DFF76E07A684FF439
:100C90004063C4F201039A420CD14FF008004FF0B8
:100CA000010100F06FFF4FF008004FF0000100F06D
:100CB00069FF62E07A684FF48053C4F201039A42FC
:100CC0000CD14FF010004FF0010100F05BFF4FF02E
:100CD00010004FF0000100F055FF4EE07A684FF42D
:100CE000A053C4F201039A420CD14FF020004FF000
:100CF000010100F047FF4FF020004FF0000100F02D
:100D000041FF3AE07A684FF4C053C4F201039A42BB
:100D10000CD14FF040004FF0010100F033FF4FF0D5
:100D200040004FF0000100F02DFF26E07A684FF4FC
:100D3000E053C4F201039A420CD14FF080004FF00F
:100D4000010100F01FFF4FF080004FF0000100F0A4
:100D500019FF12E07A684FF40053C4F201039A427B
:100D60000BD14FF480704FF0010100F00BFF4FF4F6
:100D700080704FF0000100F005FF07F10807BD4645
:100D800080BD00BF80B500AF4FF001004FF0010102
:100D900000F0F8FE4FF001004FF0000100F0F2FE0D
:100DA00080BD00BF80B489B000AF786039604FF07B
:100DB0000003FB614FF000033B614FF00003BB6198
:100DC0004FF00003FB604FF000037B614FF0000326
:100DD000BB603B68DB7803F00F03FB613B68DB78AB
:100DE00003F01003002B04D03B689B78FA6913438F
:100DF000FB613B681B88DBB2002B4ED07B681B6815
:100E00007B614FF00003BB6141E0BB694FF0010221
:100E100002FA03F3FB603B681B881A46FB68134029
:100E20003B613A69FB689A422DD1BB694FEA830363
:100E3000FB60FB684FF00F0202FA03F3BB60BB6874
:100E40006FEA03037A6913407B61FB68FA6902FA6F
:100E500003F37A6913437B613B68DB78282B07D166
:100E6000BB694FF0010202FA03F27B685A610AE0A3
:100E70003B68DB78482B06D1BB694FF0010202FAD0
:100E800003F27B681A61BB6903F10103BB61BB69B3
:100E9000072BBAD97B687A691A603B681B88FF2BDD
:100EA00053D97B685B687B614FF00003BB6146E010
:100EB000BB6903F108034FF0010202FA03F3FB6080
:100EC0003B681B881A46FB6813403B613A69FB6824
:100ED0009A4230D1BB694FEA8303FB60FB684FF055
:100EE0000F0202FA03F3BB60BB686FEA03037A697F
:100EF00013407B61FB68FA6902FA03F37A691343D2
:100F00007B613B68DB78282B08D1BB6903F10803C0
:100F10004FF0010202FA03F27B685A613B68DB780A
:100F2000482B08D1BB6903F108034FF0010202FA14
:100F300003F27B681A61BB6903F10103BB61BB6902
:100F4000072BB5D97B687A695A6007F12407BD463B
:100F500080BC704780B483B000AF78607B684FF688
:100F6000FF721A807B684FF002029A707B684FF024
:100F70000402DA7007F10C07BD4680BC704700BF61
:100F800080B485B000AF78600B467B804FF00003E3
:100F9000FB737B689A687B881340002B03D04FF06B
:100FA0000103FB7302E04FF00003FB73FB7B184669
:100FB00007F11407BD4680BC704700BF80B483B002
:100FC00000AF78607B689B689BB2184607F10C07FE
:100FD000BD4680BC704700BF80B485B000AF78606C
:100FE0000B467B804FF00003FB737B68DA687B88DD
:100FF0001340002B03D04FF00103FB7302E04FF0CE
:101000000003FB73FB7B184607F11407BD4680BC49
:10101000704700BF80B483B000AF78607B68DB6846
:101020009BB2184607F10C07BD4680BC704700BF55
:1010300080B483B000AF78600B467B807A887B6891
:101040001A6107F10C07BD4680BC704780B483B0BD
:1010500000AF78600B467B807A887B685A6107F125
:101060000C07BD4680BC704780B483B000AF786089
:1010700013460A467A807B707B78002B03D07A88EF
:101080007B681A6102E07A887B685A6107F10C0775
:10109000BD4680BC704700BF80B483B000AF7860AD
:1010A0000B467B807A887B68DA6007F10C07BD46C7
:1010B00080BC704780B485B000AF78600B467B8001
:1010C0004FF48033FB607B88FA681343FB607B68D6
:1010D000FA689A617A887B689A617B68FA689A6193
:1010E0007B689B69FB607B689B69FB6007F1140769
:1010F000BD4680BC704700BF80B485B000AF0246DB
:101100000B46FA71BB714FF00003FB604FF0000318
:10111000C4F201031B68FB60FA684FF6807313404A
:10112000FB60FB794FEA0313FA681343FB60BB795A
:10113000FA681343FB604FF00003C4F20103FA683E
:101140001A6007F11407BD4680BC704780B483B0B5
:1011500000AF0346FB714FF01C03C4F22023FA7961
:101160001A6007F10C07BD4680BC704780B487B099
:1011700000AF78600B46FB704FF000033B614FF00F
:101180000003FB604FF000037B614FF00003BB6086
:101190007B68002B06DA4FF00003C4F20103DB6921
:1011A0007B6105E04FF00003C4F201035B687B61E3
:1011B0007B6803F470234FEA1343BB607B684FEAFC
:1011C00003434FEA13433B617B6803F44013B3F5D9
:1011D000401F10D17B6923F070637B614FF00003E7
:1011E000C4F201034FF00002C4F20102526822F07F
:1011F00070625A6026E07B6803F48013002B10D0E5
:10120000BB684FF0030202FA03F3FB60FB686FEA6E
:1012100003037A6913407B617B6943F070637B61F0
:1012200010E07B684FEA53534FEA03133A6902FA1E
:1012300003F36FEA03037A6913407B617B6943F030
:1012400070637B61FB78002B0AD07B684FEA5353B5
:101250004FEA03133A6902FA03F37A6913437B6195
:101260007B68002B06DA4FF00003C4F201037A69B1
:10127000DA6105E04FF00003C4F201037A695A60B5
:1012800007F11C07BD4680BC704700BF90B484B016
:1012900000AF02460B46FA71BB714FF00003FB60D2
:1012A000BB7903F003034FEA83034FF00F0202FA06
:1012B00003F3FB604FF00003C4F20103BA794FEA75
:1012C0009202D2B210464FF00002C4F20102B97984
:1012D0004FEA9101C9B201F1020152F82110FA68F6
:1012E0006FEA0202114000F1020243F822104FF0AF
:1012F0000003C4F20103BA794FEA9202D2B2104657
:101300004FF00002C4F20102B9794FEA9101C9B26B
:1013100001F1020152F82110FC79BA7902F00302BE
:101320004FEA820204FA02F2114300F1020243F88A
:10133000221007F11007BD4690BC704780B483B0FF
:1013400000AF78604FF0DC03C4F220237A681A60A3
:1013500007F10C07BD4680BC704700BF80B400AFEA
:101360004FF48053C4F202034FF48052C4F20202DD
:10137000126842F001021A604FF48052C4F2020275
:101380004FF48053C4F2020359684FF00003CFF6C4
:10139000FF030B4053604FF48053C4F202034FF439
:1013A0008052C4F20202126822F0847222F4803267
:1013B0001A604FF48053C4F202034FF48052C4F217
:1013C0000202126822F480221A604FF48053C4F2A1
:1013D00002034FF48052C4F20202526822F4FE0269
:1013E0005A604FF48053C4F202034FF41F029A6014
:1013F0004FF48053C4F202034FF00002DA62BD469C
:1014000080BC704780B483B000AF78604FF48053E5
:10141000C4F202034FF48052C4F20202126822F4B2
:1014200080321A604FF48053C4F202034FF48052AA
:10143000C4F20202126822F480221A607B68B3F5BB
:10144000803F03D0B3F5802F0DD019E04FF48053C7
:10145000C4F202034FF48052C4F20202126842F452
:1014600080321A600DE04FF48053C4F202034FF44F
:101470008052C4F20202126842F4A0221A6000E014
:1014800000BF07F10C07BD4680BC704780B582B035
:1014900000AF4FF000033B604FF00003FB714FF0D3
:1014A0000003BB714FF0310000F0F0FB0346BB714D
:1014B0003B6803F101033B603B68B3F5A06F02D0CA
:1014C000BB79002BEED04FF0310000F0DFFB03467C
:1014D000002B03D04FF00103FB7102E04FF000033B
:1014E000FB71FB79184607F10807BD4680BD00BFB8
:1014F00080B485B000AF0346FB714FF00003FB6082
:101500004FF48053C4F202031B68FB60FB6823F0B6
:10151000F803FB60FB794FEAC303FA681343FB60EF
:101520004FF48053C4F20203FA681A6007F11407FB
:10153000BD4680BC704700BF80B483B000AF034697
:10154000FB714FF00003C4F24223FA791A6007F1ED
:101550000C07BD4680BC704780B485B000AF786092
:1015600039604FF00003FB604FF48053C4F2020374
:101570005B68FB60FB6823F47413FB607A683B686C
:101580001343FA681343FB604FF48053C4F2020321
:10159000FA685A6007F11407BD4680BC704700BF67
:1015A00080B483B000AF0346FB714FF06003C4F218
:1015B0004223FA791A6007F10C07BD4680BC7047D8
:1015C00080B485B000AF786039604FF00003FB60F5
:1015D0004FF48053C4F20203DB6AFB60FB6823F420
:1015E000803323F00F03FB607A683B681343FA688B
:1015F0001343FB604FF48053C4F20203FA68DA62CB
:1016000007F11407BD4680BC704700BF80B485B0A9
:1016100000AF78604FF00003FB604FF48053C4F2DA
:1016200002035B68FB60FB6823F00303FB60FA685E
:101630007B681343FB604FF48053C4F20203FA68E3
:101640005A6007F11407BD4680BC704780B400AFF4
:101650004FF48053C4F202035B68DBB203F00C0367
:10166000DBB21846BD4680BC704700BF80B485B071
:1016700000AF78604FF00003FB604FF48053C4F27A
:1016800002035B68FB60FB6823F0F003FB60FA6811
:101690007B681343FB604FF48053C4F20203FA6883
:1016A0005A6007F11407BD4680BC704780B485B00E
:1016B00000AF78604FF00003FB604FF48053C4F23A
:1016C00002035B68FB60FB6823F4E063FB60FA687D
:1016D0007B681343FB604FF48053C4F20203FA6843
:1016E0005A6007F11407BD4680BC704780B485B0CE
:1016F00000AF78604FF00003FB604FF48053C4F2FA
:1017000002035B68FB60FB6823F46053FB607B684B
:101710004FEAC303FA681343FB604FF48053C4F2EB
:101720000203FA685A6007F11407BD4680BC70478F
:1017300080B483B000AF02460B46FA71BB71BB792F
:10174000002B0ED041F20903C4F2020341F2090258
:10175000C4F202021278D1B2FA790A43D2B21A70F4
:1017600010E041F20903C4F2020341F20902C4F29B
:1017700002021278D1B2FA796FEA0202D2B20A40BA
:10178000D2B21A7007F10C07BD4680BC704700BF8B
:1017900080B483B000AF78604FF0D803C4F2422326
:1017A0007A681A6007F10C07BD4680BC704700BF1D
:1017B00080B485B000AF78604FF00003FB604FF459
:1017C0008053C4F202035B68FB60FB6823F4404370
:1017D000FB60FA687B681343FB604FF48053C4F2EC
:1017E0000203FA685A6007F11407BD4680BC7047CF
:1017F00080B483B000AF0346FB714FF48153C4F251
:1018000002034FF000021A704FF48153C4F2020336
:101810004FF000021A70FB79012B02D0042B08D084
:101820000FE04FF48153C4F202034FF001021A702B
:1018300008E04FF48153C4F202034FF005021A701E
:1018400000E000BF07F10C07BD4680BC704700BF39
:1018500080B483B000AF0346FB714FF49063C4F2D1
:101860004223FA791A6007F10C07BD4680BC704725
:1018700080B483B000AF78604FF48053C4F20203A9
:101880004FF48052C4F20202116A7A680A431A6263
:1018900007F10C07BD4680BC704700BF80B483B021
:1018A00000AF0346FB7140F23C43C4F24223FA7995
:1018B0001A6007F10C07BD4680BC704780B489B040
:1018C00000AF78604FF00003FB614FF00003BB6195
:1018D0004FF000037B614FF000033B614FF00003CA
:1018E000FB604FF48053C4F202035B6803F00C0307
:1018F000FB61FB69042B0AD0082B0FD0002B47D1CA
:101900007A684FF49053C0F27A03136047E07A6824
:101910004FF49053C0F27A03136040E04FF48053C9
:10192000C4F202035B6803F47013BB614FF480538D
:10193000C4F202035B6803F480337B61BB694FEA46
:10194000934303F10203BB617B69002B09D1BA69A0
:101950004FF41063C0F23D0303FB02F27B681A6090
:101960001DE04FF48053C4F20203DB6A03F00F035F
:1019700003F10103FB604FF49053C0F27A03FA685D
:10198000B3FBF2F3BA6902FB03F27B681A6006E06C
:101990007A684FF49053C0F27A03136000BF4FF49B
:1019A0008053C4F202035B6803F0F003FB61FB6940
:1019B0004FEA1313FB6140F21853C2F20003FA69B5
:1019C0009B181B78DBB23B617B681A683B6922FA83
:1019D00003F27B685A604FF48053C4F202035B68E1
:1019E00003F4E063FB61FB694FEA1323FB6140F200
:1019F0001853C2F20003FA699B181B78DBB23B61F3
:101A00007B685A683B6922FA03F27B689A604FF45C
:101A10008053C4F202035B6803F46053FB61FB690B
:101A20004FEAD323FB6140F21853C2F20003FA6974
:101A30009B181B78DBB23B617B685A683B6922FAD2
:101A400003F27B68DA604FF48053C4F202035B68F0
:101A500003F44043FB61FB694FEA9333FB6140F2BF
:101A60002853C2F20003FA699B181B78DBB23B6172
:101A70007B68DA683B69B2FBF3F27B681A6107F1B5
:101A80002407BD4680BC704780B483B000AF786047
:101A90000B46FB70FB78002B0CD04FF48053C4F244
:101AA00002034FF48052C4F2020251697A680A4379
:101AB0005A610DE04FF48053C4F202034FF4805298
:101AC000C4F2020251697A686FEA02020A405A615E
:101AD00007F10C07BD4680BC704700BF80B483B0DF
:101AE00000AF78600B46FB70FB78002B0CD04FF4F6
:101AF0008053C4F202034FF48052C4F2020291698F
:101B00007A680A439A610DE04FF48053C4F20203ED
:101B10004FF48052C4F2020291697A686FEA0202BD
:101B20000A409A6107F10C07BD4680BC704700BFB0
:101B300080B483B000AF78600B46FB70FB78002B5D
:101B40000CD04FF48053C4F202034FF48052C4F21D
:101B50000202D1697A680A43DA610DE04FF48053DA
:101B6000C4F202034FF48052C4F20202D1697A68CF
:101B70006FEA02020A40DA6107F10C07BD4680BC39
:101B8000704700BF80B483B000AF78600B46FB7035
:101B9000FB78002B0CD04FF48053C4F202034FF4B7
:101BA0008052C4F20202D1687A680A43DA600DE01A
:101BB0004FF48053C4F202034FF48052C4F2020285
:101BC000D1687A686FEA02020A40DA6007F10C070E
:101BD000BD4680BC704700BF80B483B000AF786062
:101BE0000B46FB70FB78002B0CD04FF48053C4F2F3
:101BF00002034FF48052C4F2020211697A680A4368
:101C00001A610DE04FF48053C4F202034FF4805286
:101C1000C4F2020211697A686FEA02020A401A618C
:101C200007F10C07BD4680BC704700BF80B483B08D
:101C300000AF0346FB714FF48863C4F24223FA7984
:101C40001A6007F10C07BD4680BC704780B483B0B2
:101C500000AF0346FB714FF04C03C4F24223FA7904
:101C60001A6007F10C07BD4680BC704780B483B092
:101C700000AF0346FB7141F20703C4F20203FA7995
:101C80001A7007F10C07BD4680BC704780B487B05E
:101C900000AF0346FB714FF00003FB604FF0000301
:101CA0007B614FF00003FB74FB794FEA5313DBB207
:101CB000FB60FB68012B06D14FF48053C4F2020392
:101CC0001B687B610FE0FB68022B06D14FF4805349
:101CD000C4F202031B6A7B6105E04FF48053C4F237
:101CE00002035B6A7B61FB7903F01F03FB60FB6807
:101CF0007A6922FA03F303F00103DBB2002B03D06D
:101D00004FF00103FB7402E04FF00003FB74FB7C17
:101D1000184607F11C07BD4680BC704780B400AF71
:101D20004FF48053C4F202034FF48052C4F2020213
:101D3000526A42F080725A62BD4680BC704700BF52
:101D400080B485B000AF0346FB714FF00003FB7316
:101D50004FF48053C4F202039A68FB791340002BBE
:101D600003D04FF00103FB7302E04FF00003FB735D
:101D7000FB7B184607F11407BD4680BC704700BFC7
:101D800080B483B000AF0346FB7141F20A03C4F292
:101D90000203FA791A7007F10C07BD4680BC704740
:101DA00080B582B000AF78607A684FF43053C4F2E7
:101DB00001039A420CD14FF400604FF00101FFF78C
:101DC000E1FE4FF400604FF00001FFF7DBFE3BE166
:101DD0007B68B3F1804F0CD14FF001004FF001014F
:101DE000FFF7FAFE4FF001004FF00001FFF7F4FE9D
:101DF0002AE17A684FF48063C4F200039A420CD15E
:101E00004FF002004FF00101FFF7E6FE4FF0020035
:101E10004FF00001FFF7E0FE16E17A684FF400632F
:101E2000C4F200039A420CD14FF004004FF00101BC
:101E3000FFF7D2FE4FF004004FF00001FFF7CCFE99
:101E400002E17A684FF44063C4F200039A420CD175
:101E50004FF008004FF00101FFF7BEFE4FF0080001
:101E60004FF00001FFF7B8FEEEE07A684FF48053C0
:101E7000C4F200039A420CD14FF010004FF0010160
:101E8000FFF7AAFE4FF010004FF00001FFF7A4FE8D
:101E9000DAE07A684FF4A053C4F200039A420CD1FE
:101EA0004FF020004FF00101FFF796FE4FF02000A9
:101EB0004FF00001FFF790FEC6E07A684FF45053F0
:101EC000C4F201039A420CD14FF400504FF00101CB
:101ED000FFF758FE4FF400504FF00001FFF752FE9D
:101EE000B2E07A684FF49843C4F201039A420CD1ED
:101EF0004FF400204FF00101FFF744FE4FF40020A3
:101F00004FF00001FFF73EFE9EE07A684FF4A043D9
:101F1000C4F201039A420CD14FF480104FF001013A
:101F2000FFF730FE4FF480104FF00001FFF72AFE5C
:101F30008AE07A684FF4A843C4F201039A420CD1B4
:101F40004FF400104FF00101FFF71CFE4FF400109A
:101F50004FF00001FFF716FE76E07A684FF4C053A9
:101F6000C4F200039A420CD14FF040004FF001013F
:101F7000FFF732FE4FF040004FF00001FFF72CFE5C
:101F800062E07A684FF4E053C4F200039A420CD145
:101F90004FF080004FF00101FFF71EFE4FF0800070
:101FA0004FF00001FFF718FE4EE07A684FF400533F
:101FB000C4F200039A420CD14FF480704FF001013B
:101FC000FFF70AFE4FF480704FF00001FFF704FEA8
:101FD0003AE07A684FF48043C4F201039A420CD18C
:101FE0004FF480304FF00101FFF7CCFD4FF480300B
:101FF0004FF00001FFF7C6FD26E07A684FF48843F2
:10200000C4F201039A420CD14FF400304FF00101A9
:10201000FFF7B8FD4FF400304FF00001FFF7B2FDBD
:1020200012E07A684FF49043C4F201039A420BD154
:102030004FF480204FF00101FFF7A4FD4FF4802002
:102040004FF00001FFF79EFD07F10807BD4680BD78
:1020500080B485B000AF786039604FF00003FB8139
:102060007B681B88FB817A684FF43053C4F201030C
:102070009A421FD07A684FF45053C4F201039A4237
:1020800018D07B68B3F1804F14D07A684FF4806326
:10209000C4F200039A420DD07A684FF40063C4F290
:1020A00000039A4206D07A684FF44063C4F20003FA
:1020B0009A4208D1FB8923F07003FB813B685A8860
:1020C000FB891343FB817A684FF48053C4F2000309
:1020D0009A420FD07A684FF4A053C4F200039A4298
:1020E00008D0FB8923F44073FB813B68DA88FB89C5
:1020F0001343FB817B68FA891A803B689A887B6866
:102100009A853B681A887B681A857A684FF4305341
:10211000C4F201039A421BD07A684FF45053C4F2C0
:1021200001039A4214D07A684FF48043C4F2010349
:102130009A420DD07A684FF48843C4F201039A4260
:1021400006D07A684FF49043C4F201039A4204D156
:102150003B681B7A1A467B681A867B684FF001023F
:102160009A8207F11407BD4680BC704780B485B0E1
:1021700000AF786039604FF000037B814FF00003BF
:10218000FB814FF00003BB817B681B8C9BB223F06B
:1021900001039AB27B681A847B681B8CFB817B6885
:1021A0009B88BB817B681B8B7B817B8923F07003C1
:1021B0007B817B8923F003037B813B681A887B89C1
:1021C00013437B81FB8923F00203FB813B681A895F
:1021D000FB891343FB813B685A88FB891343FB81CE
:1021E0007A684FF43053C4F201039A421BD07A68E4
:1021F0004FF45053C4F201039A4214D07A684FF45A
:102200008043C4F201039A420DD07A684FF48843A8
:10221000C4F201039A4206D07A684FF49043C4F2A4
:1022200001039A4223D1FB8923F00803FB813B6819
:102230005A89FB891343FB81FB8923F00403FB814B
:102240003B689A88FB891343FB81BB8923F4807325
:10225000BB81BB8923F40073BB813B689A89BB892E
:102260001343BB813B68DA89BB891343BB817B681D
:10227000BA899A807B687A891A833B68DA887B6896
:102280009A867B68FA891A8407F11407BD4680BCD8
:10229000704700BF80B485B000AF786039604FF000
:1022A00000037B814FF00003FB814FF00003BB81F3
:1022B0007B681B8C9BB223F010039AB27B681A8454
:1022C0007B681B8CFB817B689B88BB817B681B8B3D
:1022D0007B817B8923F4E0437B817B8923F44073FA
:1022E0007B813B681B884FEA03239AB27B891343A7
:1022F0007B81FB8923F02003FB813B681B894FEA2C
:1023000003139AB2FB891343FB813B685B884FEA56
:1023100003139AB2FB891343FB817A684FF430535D
:10232000C4F201039A4206D07A684FF45053C4F2C3
:1023300001039A422FD1FB8923F08003FB813B6884
:102340005B894FEA03139AB2FB891343FB81FB8934
:1023500023F04003FB813B689B884FEA03139AB24A
:10236000FB891343FB81BB8923F48063BB81BB8959
:1023700023F40063BB813B689B894FEA83039AB2D5
:10238000BB891343BB813B68DB894FEA83039AB265
:10239000BB891343BB817B68BA899A807B687A8941
:1023A0001A833B68DA887B681A877B68FA891A8403
:1023B00007F11407BD4680BC704700BF80B485B0EC
:1023C00000AF786039604FF000037B814FF000036D
:1023D000FB814FF00003BB817B681B8C9BB223F415
:1023E00080739AB27B681A847B681B8CFB817B6844
:1023F0009B88BB817B689B8B7B817B8923F07003EF
:102400007B817B8923F003037B813B681A887B896E
:1024100013437B81FB8923F40073FB813B681B8999
:102420004FEA03239AB2FB891343FB813B685B8825
:102430004FEA03239AB2FB891343FB817A684FF476
:102440003053C4F201039A4206D07A684FF45053D5
:10245000C4F201039A422FD1FB8923F40063FB816C
:102460003B685B894FEA03239AB2FB891343FB81E4
:10247000FB8923F48063FB813B689B884FEA03233D
:102480009AB2FB891343FB81BB8923F48053BB8140
:10249000BB8923F40053BB813B689B894FEA03133C
:1024A0009AB2BB891343BB813B68DB894FEA0313B4
:1024B0009AB2BB891343BB817B68BA899A807B68D7
:1024C0007A899A833B68DA887B689A877B68FA897D
:1024D0001A8407F11407BD4680BC704780B485B0EC
:1024E00000AF786039604FF00003BB814FF000030C
:1024F0007B814FF00003FB817B681B8C9BB223F434
:1025000080539AB27B681A847B681B8C7B817B68C2
:102510009B88FB817B689B8BBB81BB8923F4E04359
:10252000BB81BB8923F44073BB813B681B884FEAA6
:1025300003239AB2BB891343BB817B8923F40053E5
:102540007B813B681B894FEA03339AB27B89134333
:102550007B813B685B884FEA03339AB27B891343E4
:102560007B817A684FF43053C4F201039A4206D05B
:102570007A684FF45053C4F201039A420BD1FB899D
:1025800023F48043FB813B689B894FEA83139AB213
:10259000FB891343FB817B68FA899A807B68BA893F
:1025A0009A833B68DA887B68A3F840207B687A8945
:1025B0001A8407F11407BD4680BC704780B582B00D
:1025C00000AF786039603B681B88002B0FD13B68F7
:1025D00059883B689A883B681B89786801F0D4F970
:1025E0003B68DB887868194601F076F836E03B688E
:1025F0001B88042B0FD13B6859883B689A883B683D
:102600001B89786801F032FA3B68DB8878681946E4
:1026100001F07EF822E03B681B88082B0FD13B6855
:1026200059883B689A883B681B89786801F0A0FA52
:102630003B68DB887868194601F088F80EE03B6853
:1026400059883B689A883B681B89786801F00AFBC7
:102650003B68DB887868194601F094F807F10807B1
:10266000BD4680BD80B584B000AF786039604FF062
:102670000003FB814FF00103BB813B685B88002BAB
:1026800003D14FF00203FB8102E04FF00003FB8116
:102690003B689B88012B03D14FF00203BB8102E012
:1026A0004FF00103BB813B681B88002B1CD13B68AA
:1026B00059883B689A883B681B89786801F064F9FF
:1026C0003B68DB887868194601F006F83B681B898F
:1026D000F989BA89786801F0C9F93B68DB887868BC
:1026E000194601F015F81BE03B6859883B689A8849
:1026F0003B681B89786801F0B9F93B68DB8878682A
:10270000194601F005F83B681B89F989BA89786890
:1027100001F03AF93B68DB887868194600F0DCFF85
:1027200007F11007BD4680BD80B483B000AF78606C
:1027300039603B681A883B685B8813439AB23B68F0
:102740009B8813439AB23B68DB8813439AB23B6879
:102750001B8913439AB23B685B8913439AB23B6867
:102760009B8913439AB27B68A3F8442007F10C07B6
:10277000BD4680BC704700BF80B483B000AF7860B6
:102780007B684FF6FF729A807B684FF000021A80D8
:102790007B684FF00002DA807B684FF000025A80BD
:1027A0007B684FF000021A7207F10C07BD4680BC2F
:1027B000704700BF80B483B000AF78607B684FF093
:1027C00000021A807B684FF000025A807B684FF04D
:1027D00000029A807B684FF00002DA807B684FF03D
:1027E00000021A817B684FF000025A817B684FF02B
:1027F00000029A817B684FF00002DA8107F10C0732
:10280000BD4680BC704700BF80B483B000AF786025
:102810007B684FF000021A807B684FF000025A80FC
:102820007B684FF001029A807B684FF00002DA80EB
:102830007B684FF000021A8107F10C07BD4680BC8F
:10284000704700BF80B483B000AF78607B684FF002
:1028500000021A807B684FF000025A807B684FF0BC
:1028600000029A807B684FF00002DA807B684FF0AC
:1028700000021A817B684FF000025A817B684FF09A
:1028800000029A8107F10C07BD4680BC704700BF6B
:1028900080B483B000AF78600B46FB70FB78002BF0
:1028A00008D07B681B889BB243F001039AB27B6817
:1028B0001A8007E07B681B889BB223F001039AB261
:1028C0007B681A8007F10C07BD4680BC704700BFCB
:1028D00080B483B000AF78600B46FB70FB78002BB0
:1028E0000CD07B68B3F844309BB26FEA43436FEA85
:1028F00053439AB27B68A3F844200BE07B68B3F89B
:1029000044309BB24FEA43434FEA53439AB27B6849
:10291000A3F8442007F10C07BD4680BC704700BFF8
:1029200080B483B000AF786013460A467A807B702B
:102930007B78002B08D07B689B899AB27B881343F5
:102940009AB27B689A810AE07B689B899AB27B88FD
:102950006FEA03039BB213409AB27B689A8107F136
:102960000C07BD4680BC704780B483B000AF786070
:102970000B467B807B687A889A8207F10C07BD46FC
:1029800080BC704780B483B000AF786013460A46BD
:102990007A803B807A883B8813439AB27B68A3F89D
:1029A000482007F10C07BD4680BC704780B483B057
:1029B00000AF786013460A467A807B707B78002BE4
:1029C00008D07B689B899AB27B8813439AB27B6854
:1029D0009A810AE07B689B899AB27B886FEA03033D
:1029E0009BB213409AB27B689A8107F10C07BD46EF
:1029F00080BC704780B483B000AF78607B681B896F
:102A00009BB223F007039AB27B681A8107F10C0787
:102A1000BD4680BC704700BF80B582B000AF786013
:102A20000B467B807B887868194600F0D3F87B687A
:102A30001B899BB243F007039AB27B681A8107F1A6
:102A40000807BD4680BD00BF80B584B000AFF86008
:102A500079813A81FB807B89602B08D13A89FB8898
:102A6000F86811464FF0010201F000F807E03A89DA
:102A7000FB88F86811464FF0010200F085FF7B8962
:102A8000F868194600F0A6F8FB681B899BB243F072
:102A900007039AB2FB681A8107F11007BD4680BD93
:102AA00080B586B000AFF86079813A81FB804FF045
:102AB0000003FB8279893A89FB88F86800F034F8D2
:102AC000FB681B89FB82FB8A23F00703FB82FB8ADE
:102AD00043F00703FB82FB8A23F07003FB82FB8A2F
:102AE00043F07003FB82FB68FA8A1A8107F118072A
:102AF000BD4680BD80B584B000AFF86079813A8171
:102B0000FB8079893A89FB88F86800F00DF8FB684A
:102B10001B899BB243F480439AB2FB681A8107F188
:102B20001007BD4680BD00BF80B487B000AFF8601D
:102B300079813A81FB804FF00003FB82FB681B899F
:102B4000FB82FB8ADBB2FB82FB884FEA03239AB24B
:102B50003B8913439AB27B8913439AB2FB8A13438E
:102B6000FB82FB68FA8A1A8107F11C07BD4680BC0C
:102B7000704700BF80B483B000AF786013460A4648
:102B80007A803B807B687A881A857B683A889A824B
:102B900007F10C07BD4680BC704700BF80B485B00C
:102BA00000AF78600B467B804FF00003FB817B68B1
:102BB0001B88FB81FB8923F07003FB81FA897B88EA
:102BC0001343FB817B68FA891A8007F11407BD461D
:102BD00080BC704780B485B000AF78600B467B80C6
:102BE0004FF00003FB817B681B89FB81FB8923F08D
:102BF0007003FB81FA897B881343FB817B68FA8928
:102C00001A8107F11407BD4680BC704780B487B0B5
:102C100000AFF86079813A81FB804FF00003FB82BE
:102C20004FF00003BB824FF000037B82FB681B89DF
:102C3000FB82FB681B8BBB82FB681B8C7B82FB8A45
:102C400023F00703FB82FA8A7B891343FB82BB8A4A
:102C500023F4407323F00303BB82BB8A43F48073E5
:102C600043F00103BB827B8A23F022037B82FB8833
:102C70004FEA03139AB23B8913439AB27B8A1343F8
:102C80007B82FB68FA8A1A81FB68BA8A1A83FB681E
:102C90007A8A1A8407F11C07BD4680BC704700BFC2
:102CA00080B485B000AF78600B467B804FF00003A6
:102CB000FB817B681B8BFB81FB8923F07003FB810D
:102CC000FA897B881343FB817B68FA891A8307F1B1
:102CD0001407BD4680BC704780B485B000AF7860F3
:102CE0000B467B804FF00003FB817B681B8BFB81D5
:102CF000FB8923F4E043FB817B884FEA03239AB2EC
:102D0000FB891343FB817B68FA891A8307F1140757
:102D1000BD4680BC704700BF80B485B000AF78600E
:102D20000B467B804FF00003FB817B689B8BFB8114
:102D3000FB8923F07003FB81FA897B881343FB81B5
:102D40007B68FA899A8307F11407BD4680BC7047F7
:102D500080B485B000AF78600B467B804FF00003F5
:102D6000FB817B689B8BFB81FB8923F4E043FB8128
:102D70007B884FEA03239AB2FB891343FB817B686C
:102D8000FA899A8307F11407BD4680BC704700BFDB
:102D900080B483B000AF78600B46FB70FB78002BEB
:102DA00008D07B681B889BB243F080039AB27B6893
:102DB0001A8007E07B681B889BB223F080039AB2DD
:102DC0007B681A8007F10C07BD4680BC704700BFC6
:102DD00080B483B000AF78600B46FB70FB78002BAB
:102DE00008D07B689B889BB243F004039AB27B684F
:102DF0009A8007E07B689B889BB223F004039AB219
:102E00007B689A8007F10C07BD4680BC704700BF05
:102E100080B483B000AF78600B46FB70FB78002B6A
:102E200008D07B689B889BB243F008039AB27B680A
:102E30009A8007E07B689B889BB223F008039AB2D4
:102E40007B689A8007F10C07BD4680BC704700BFC5
:102E500080B483B000AF78600B46FB70FB78002B2A
:102E600008D07B689B889BB243F001039AB27B68D1
:102E70009A8007E07B689B889BB223F001039AB29B
:102E80007B689A8007F10C07BD4680BC704700BF85
:102E900080B485B000AF78600B467B804FF00003B4
:102EA000FB817B681B8BFB81FB8923F00803FB8183
:102EB000FA897B881343FB817B68FA891A8307F1BF
:102EC0001407BD4680BC704780B485B000AF786001
:102ED0000B467B804FF00003FB817B681B8BFB81E3
:102EE000FB8923F40063FB817B884FEA03239AB2BA
:102EF000FB891343FB817B68FA891A8307F1140766
:102F0000BD4680BC704700BF80B485B000AF78601C
:102F10000B467B804FF00003FB817B689B8BFB8122
:102F2000FB8923F00803FB81FA897B881343FB812B
:102F30007B68FA899A8307F11407BD4680BC704705
:102F400080B485B000AF78600B467B804FF0000303
:102F5000FB817B689B8BFB81FB8923F40063FB81F6
:102F60007B884FEA03239AB2FB891343FB817B687A
:102F7000FA899A8307F11407BD4680BC704700BFE9
:102F800080B485B000AF78600B467B804FF00003C3
:102F9000FB817B681B8BFB81FB8923F00403FB8196
:102FA000FA897B881343FB817B68FA891A8307F1CE
:102FB0001407BD4680BC704780B485B000AF786010
:102FC0000B467B804FF00003FB817B681B8BFB81F2
:102FD000FB8923F48063FB817B884FEA03239AB249
:102FE000FB891343FB817B68FA891A8307F1140775
:102FF000BD4680BC704700BF80B485B000AF78602C
:103000000B467B804FF00003FB817B689B8BFB8131
:10301000FB8923F00403FB81FA897B881343FB813E
:103020007B68FA899A8307F11407BD4680BC704714
:1030300080B485B000AF78600B467B804FF0000312
:10304000FB817B689B8BFB81FB8923F48063FB8185
:103050007B884FEA03239AB2FB891343FB817B6889
:10306000FA899A8307F11407BD4680BC704700BFF8
:1030700080B485B000AF78600B467B804FF00003D2
:10308000FB817B681B8BFB81FB8923F08003FB8129
:10309000FA897B881343FB817B68FA891A8307F1DD
:1030A0001407BD4680BC704780B485B000AF78601F
:1030B0000B467B804FF00003FB817B681B8BFB8101
:1030C000FB894FEA43434FEA5343FB817B884FEA36
:1030D00003239AB2FB891343FB817B68FA891A8325
:1030E00007F11407BD4680BC704700BF80B485B0AF
:1030F00000AF78600B467B804FF00003FB817B685C
:103100009B8BFB81FB8923F08003FB81FA897B8801
:103110001343FB817B68FA899A8307F11407BD4644
:1031200080BC704780B485B000AF78600B467B8070
:103130004FF00003FB817B689B8BFB81FB894FEA8F
:1031400043434FEA5343FB817B884FEA03239AB200
:10315000FB891343FB817B68FA899A8307F1140783
:10316000BD4680BC704700BF80B485B000AF7860BA
:103170000B467B804FF00003FB817B681B8CFB813F
:10318000FB8923F00203FB81FA897B881343FB81CF
:103190007B68FA891A8407F11407BD4680BC704722
:1031A00080B485B000AF78600B467B804FF00003A1
:1031B000FB817B681B8CFB81FB8923F00803FB816F
:1031C000FA897B881343FB817B68FA891A8407F1AB
:1031D0001407BD4680BC704780B485B000AF7860EE
:1031E0000B467B804FF00003FB817B681B8CFB81CF
:1031F000FB8923F02003FB817B884FEA03139AB2FB
:10320000FB891343FB817B68FA891A8407F1140751
:10321000BD4680BC704700BF80B485B000AF786009
:103220000B467B804FF00003FB817B681B8CFB818E
:10323000FB8923F08003FB817B884FEA03139AB25A
:10324000FB891343FB817B68FA891A8407F1140711
:10325000BD4680BC704700BF80B485B000AF7860C9
:103260000B467B804FF00003FB817B681B8CFB814E
:10327000FB8923F40073FB817B884FEA03239AB216
:10328000FB891343FB817B68FA891A8407F11407D1
:10329000BD4680BC704700BF80B485B000AF786089
:1032A0000B467B804FF00003FB817B681B8CFB810E
:1032B000FB8923F40063FB817B884FEA03239AB2E6
:1032C000FB891343FB817B68FA891A8407F1140791
:1032D000BD4680BC704700BF80B485B000AF786049
:1032E0000B467B804FF00003FB817B681B8CFB81CE
:1032F000FB8923F40053FB817B884FEA03339AB2A6
:10330000FB891343FB817B68FA891A8407F1140750
:10331000BD4680BC704700BF80B485B000AF786008
:1033200013460A467A803B804FF00003FB817B887E
:103330004FF0010202FA03F3FB817B681B8C9AB207
:10334000FB896FEA03039BB213409AB27B681A842D
:103350007B681B8C9AB239887B8801FA03F39BB295
:1033600013439AB27B681A8407F11407BD4680BCE8
:10337000704700BF80B485B000AF786013460A463E
:103380007A803B804FF00003FB817B884FF0040282
:1033900002FA03F3FB817B681B8C9AB2FB896FEA0C
:1033A00003039BB213409AB27B681A847B681B8C20
:1033B0009AB239887B8801FA03F39BB213439AB21D
:1033C0007B681A8407F11407BD4680BC704700BFB4
:1033D00080B485B000AF786013460A467A803B809F
:1033E0004FF00003FB604FF000037B817B68FB60C4
:1033F000FB6803F11803FB607B884FF0010202FABF
:1034000003F37B817B681B8C9AB27B896FEA030391
:103410009BB213409AB27B681A847B88002B02D03F
:103420007B88082B13D17B884FEA53039BB2FA6841
:10343000D318FB60FB68FA68126822F070021A6009
:10344000FB68FA6811683A880A431A6018E07B88BA
:10345000A3F104039BB24FEA53039BB2FA68D3185B
:10346000FB60FB68FA68126822F4E0421A60FB68AD
:10347000FA6811683A884FEA022292B20A431A6047
:1034800007F11407BD4680BC704700BF80B483B00D
:1034900000AF78600B46FB70FB78002B08D07B6890
:1034A0001B889BB243F002039AB27B681A8007E044
:1034B0007B681B889BB223F002039AB27B681A8058
:1034C00007F10C07BD4680BC704700BF80B483B0D5
:1034D00000AF78600B467B807B88002B08D07B6830
:1034E0001B889BB243F004039AB27B681A8007E002
:1034F0007B681B889BB223F004039AB27B681A8016
:1035000007F10C07BD4680BC704700BF80B483B094
:1035100000AF78600B46FB70FB78002B08D07B680F
:103520009B889BB243F080039AB27B689A8007E045
:103530007B689B889BB223F080039AB27B689A8059
:1035400007F10C07BD4680BC704700BF80B483B054
:1035500000AF78600B467B807B681B889BB223F0B2
:1035600008039AB27B681A807B681B889AB27B88B2
:1035700013439AB27B681A8007F10C07BD4680BCE2
:10358000704700BF80B483B000AF78600B467B808B
:103590007B689B889BB223F070039AB27B689A8009
:1035A0007B689B889AB27B8813439AB27B689A8027
:1035B00007F10C07BD4680BC704700BF80B483B0E4
:1035C00000AF78600B467B807B681B899BB223F041
:1035D00007039AB27B681A817B681B899AB27B8841
:1035E00013439AB27B681A8107F10C07BD4680BC71
:1035F000704700BF80B483B000AF78600B467B801B
:103600007B681B899BB223F080039AB27B681A8186
:103610007B681B899AB27B8813439AB27B681A81B4
:1036200007F10C07BD4680BC704700BF80B483B073
:1036300000AF78600B467B807B687A889A8407F1BC
:103640000C07BD4680BC704780B483B000AF786083
:103650000B467B807B687A889A8507F10C07BD460C
:1036600080BC704780B483B000AF78600B467B802D
:103670007B687A889A8607F10C07BD4680BC704744
:1036800080B483B000AF78600B467B807B687A881B
:103690001A8707F10C07BD4680BC704780B483B021
:1036A00000AF78600B467B807B687A889A8707F149
:1036B0000C07BD4680BC704780B483B000AF786013
:1036C0000B467B807B687A88A3F8402007F10C07C3
:1036D000BD4680BC704700BF80B483B000AF786047
:1036E0000B467B807B681B8B9BB223F00C039AB24A
:1036F0007B681A837B681B8B9AB27B8813439AB2D0
:103700007B681A8307F10C07BD4680BC704700BF79
:1037100080B483B000AF78600B467B807B681B8BE6
:103720009BB223F440639AB27B681A837B681B8B3D
:103730009AB27B884FEA03239BB213439AB27B6809
:103740001A8307F10C07BD4680BC704780B483B074
:1037500000AF78600B467B807B689B8B9BB223F02D
:103760000C039AB27B689A837B689B8B9AB27B88A6
:1037700013439AB27B689A8307F10C07BD4680BC5D
:10378000704700BF80B483B000AF78600B467B8089
:103790007B689B8B9BB223F440639AB27B689A83CD
:1037A0007B689B8B9AB27B884FEA03239BB21343BF
:1037B0009AB27B689A8307F10C07BD4680BC7047BC
:1037C00080B483B000AF78600B467B807B681B8839
:1037D0009BB223F440739AB27B681A807B681B8883
:1037E0009AB27B8813439AB27B681A8007F10C0760
:1037F000BD4680BC704700BF80B483B000AF786026
:103800007B689B8E9BB2184607F10C07BD4680BCB7
:10381000704700BF80B483B000AF78607B681B8FB7
:103820009BB2184607F10C07BD4680BC704700BF2D
:1038300080B483B000AF78607B689B8F9BB21846E2
:1038400007F10C07BD4680BC704700BF80B483B051
:1038500000AF78607B68B3F840309BB2184607F140
:103860000C07BD4680BC704780B483B000AF786061
:103870007B689B8C9BB2184607F10C07BD4680BC49
:10388000704700BF80B483B000AF78607B681B8D49
:103890009BB2184607F10C07BD4680BC704700BFBD
:1038A00080B485B000AF78600B467B804FF000039A
:1038B000FB737B681B8A9AB27B8813409BB2002BF8
:1038C00003D04FF00103FB7302E04FF00003FB73E2
:1038D000FB7B184607F11407BD4680BC704700BF4C
:1038E00080B483B000AF78600B467B807B886FEA42
:1038F00003039AB27B681A8207F10C07BD4680BCAD
:10390000704700BF80B485B000AF78600B467B8005
:103910004FF00003FB734FF00003BB814FF0000337
:103920007B817B681B8A9AB27B881340BB817B6852
:103930009B899AB27B8813407B81BB89002B06D080
:103940007B89002B03D04FF00103FB7302E04FF0A3
:103950000003FB73FB7B184607F11407BD4680BCD0
:10396000704700BF80B483B000AF78600B467B80A7
:103970007B886FEA03039AB27B681A8207F10C070F
:10398000BD4680BC704700BF80B487B000AFF86010
:1039900079813A81FB804FF00003BB824FF0000336
:1039A000FB82FB681B8C9BB223F001039AB2FB687D
:1039B0001A84FB681B8BBB82FB681B8CFB82BB8A57
:1039C00023F0F303BB82FB884FEA03139AB23B89CF
:1039D00013439AB2BB8A1343BB82FA684FF4305345
:1039E000C4F201039A421FD0FA684FF45053C4F254
:1039F00001039A4218D0FB68B3F1804F14D0FA68E3
:103A00004FF48063C4F200039A420DD0FA684FF479
:103A10000063C4F200039A4206D0FA684FF4406390
:103A2000C4F200039A420BD1FB8A23F00203FB820B
:103A30007A89FB8A13439BB243F00103FB820AE0BD
:103A4000FB8A23F00A03FB827A89FB8A13439BB229
:103A500043F00103FB82FB68BA8A1A83FB68FA8A87
:103A60001A8407F11C07BD4680BC704780B487B03C
:103A700000AFF86079813A81FB804FF00003BB8290
:103A80004FF00003FB824FF000037B82FB681B8C2E
:103A90009BB223F010039AB2FB681A84FB681B8B5D
:103AA000BB82FB681B8CFB827B894FEA03137B8202
:103AB000BB8A23F440734FEA03534FEA1353BB828C
:103AC000FB884FEA03339AB2BB8A1343BB823B891C
:103AD0004FEA03239AB2BB8A1343BB82FA684FF4BE
:103AE0003053C4F201039A421FD0FA684FF4505386
:103AF000C4F201039A4218D0FB68B3F1804F14D08E
:103B0000FA684FF48063C4F200039A420DD0FA6859
:103B10004FF40063C4F200039A4206D0FA684FF4EF
:103B20004063C4F200039A420BD1FB8A23F02003C6
:103B3000FB827A8AFB8A13439BB243F01003FB8219
:103B40000AE0FB8A23F0A003FB827A89FB8A1343F5
:103B50009BB243F01003FB82FB68BA8A1A83FB68AE
:103B6000FA8A1A8407F11C07BD4680BC704700BF63
:103B700080B487B000AFF86079813A81FB804FF064
:103B80000003BB824FF00003FB824FF000037B82F7
:103B9000FB681B8C9BB223F480739AB2FB681A8477
:103BA000FB689B8BBB82FB681B8CFB827B894FEA8B
:103BB00003237B82BB8A23F0F303BB82FB884FEA9B
:103BC00003139AB23B8913439AB2BB8A1343BB8255
:103BD000FA684FF43053C4F201039A421FD0FA68D6
:103BE0004FF45053C4F201039A4218D0FB68B3F16A
:103BF000804F14D0FA684FF48063C4F200039A42F5
:103C00000DD0FA684FF40063C4F200039A4206D064
:103C1000FA684FF44063C4F200039A420BD1FB8A66
:103C200023F40073FB827A8AFB8A13439BB243F42A
:103C30008073FB820AE0FB8A23F42063FB827A898B
:103C4000FB8A13439BB243F48073FB82FB68BA8AFE
:103C50009A83FB68FA8A1A8407F11C07BD4680BC68
:103C6000704700BF80B487B000AFF86079813A81B7
:103C7000FB804FF00003BB824FF00003FB824FF04C
:103C800000037B82FB681B8C9BB223F480539AB2A7
:103C9000FB681A84FB689B8BBB82FB681B8CFB82D6
:103CA0007B894FEA03337B82BB8A23F440734FEA5C
:103CB00003534FEA1353BB823B894FEA03239AB263
:103CC000BB8A1343BB82FB884FEA03339AB2BB8A99
:103CD0001343BB82FA684FF43053C4F201039A4293
:103CE0001FD0FA684FF45053C4F201039A4218D01F
:103CF000FB68B3F1804F14D0FA684FF48063C4F2CC
:103D000000039A420DD0FA684FF40063C4F2000336
:103D10009A4206D0FA684FF44063C4F200039A4214
:103D20000BD1FB8A23F40053FB827A8AFB8A13436C
:103D30009BB243F48053FB820EE0FB8A23F40073B2
:103D40004FEA43434FEA5343FB827A89FB8A13438A
:103D50009BB243F48053FB82FB68BA8A9A83FB6868
:103D6000FA8A1A8407F11C07BD4680BC704700BF61
:103D70004FF00004EFF309842046704723461846AD
:103D8000034683F3098870474FF00004EFF308847B
:103D90002046704723461846034683F30888704739
:103DA00090B482B000AF4FF000037B60EFF3128459
:103DB0007C607B68184607F10807BD4690BC7047D9
:103DC00080B483B000AF78607B6883F3118807F11B
:103DD0000C07BD4680BC704790B482B000AF4FF076
:103DE00000037B60EFF310847C607B68184607F16A
:103DF0000807BD4690BC704780B483B000AF7860C0
:103E00007B6883F3108807F10C07BD4680BC7047C0
:103E100090B482B000AF4FF000037B60EFF31384E7
:103E20007C607B68184607F10807BD4690BC704768
:103E300080B483B000AF78607B6883F3138807F1A8
:103E40000C07BD4680BC704790B482B000AF4FF005
:103E500000037B60EFF314847C607B68184607F1F5
:103E60000807BD4690BC704780B483B000AF78604F
:103E70007B6883F3148807F10C07BD4680BC70474C
:103E800090B484B000AF78604FF00003FB607B68B3
:103E90001CBAFC60FB68184607F11007BD4690BCD1
:103EA000704700BF90B484B000AF0346FB804FF072
:103EB0000003FB60FB885CBAFC60FB68184607F1F6
:103EC0001007BD4690BC704790B484B000AF034665
:103ED000FB804FF00003FB60FB88DCBAFC60FB68F2
:103EE000184607F11007BD4690BC704790B484B0E7
:103EF00000AF78604FF00003FB607B6893FAA3F497
:103F0000FC60FB68184607F11007BD4690BC70477F
:103F100090B484B000AF78604FF00003FB737B680F
:103F2000D3E84F4FFC73FB7B184607F11007BD46E3
:103F300090BC704790B484B000AF78604FF000033D
:103F4000FB817B68D3E85F4FFC81FB89184607F152
:103F50001007BD4690BC704790B484B000AF786045
:103F60004FF00003FB607B6853E8004FFC60FB6888
:103F7000184607F11007BD4690BC704790B484B056
:103F800000AF03463960FB714FF00003FB603B68F4
:103F9000FA79C3E8442FFC60FB68184607F1100764
:103FA000BD4690BC704700BF90B484B000AF0346DC
:103FB0003960FB804FF00003FB603B68FA88C3E880
:103FC000542FFC60FB68184607F11007BD4690BCF3
:103FD000704700BF90B484B000AF786039604FF094
:103FE0000003FB603B687A6843E80024FC60FB68E0
:103FF000184607F11007BD4690BC704708B506206B
:1040000000F034F90120FCF7B1FB00BF70B544F6B5
:10401000743644F67435C0F60006C0F60005761B0B
:10402000B61006D0002455F8043B01349847A64248
:10403000F9D144F6783644F67435C0F60006C0F679
:104040000005761B00F08AFDB61006D0002455F856
:10405000043B01349847A642F9D170BD000000002E
:1040600070B540F20004C2F2000406462568A96B50
:1040700019B100230E614B6170BD182000F04AFA9F
:1040800023680122A863996B43F20E330B804AF632
:10409000CD334B8041F234238B804EF26D63CB8065
:1040A0004DF6EC630B8105234B810B238B810023A1
:1040B000C1E9042300230E614B6170BDF8B540F2E5
:1040C0000004C2F200042768B96BD9B10A694FF243
:1040D0002D404E6947F62D73C5F65100C4F6954341
:1040E0000124002500FB02F003FB0600A2FB0323D2
:1040F000C318A41845EB0305C1E9044525F00046A3
:104100003046F8BD18204FF22D4600F003FA236820
:1041100011A5D5E90045C5F651060122B863304620
:10412000996B43F20E330B804AF6CD334B8041F24C
:1041300034238B804EF26D63CB804DF6EC630B81A4
:1041400005234B810B238B810023C1E90423C1E9A3
:104150000445F8BDAFF300802E7F954C2DF45158E7
:1041600038B50446456C0DB1002038BD802100F003
:10417000E1F9606440B12B4600E0606C43510435C6
:10418000802DFAD1002038BD4FF0FF3038BD00BF80
:104190001F2910B5044682B007D8436C53B153F8B9
:1041A000210043F8212002B010BD16234FF0FF304C
:1041B0002360F8E701910092FFF7D2FF0199009A7E
:1041C00008B9636CEBE74FF0FF30ECE71F2938B517
:1041D0000C4605461FD8426C9AB152F8213083B183
:1041E000012B0CD0581C06D00025084642F821505F
:1041F0009847284638BD162301202B6038BD002083
:1042000038BD284600F068F8224601462846BDE839
:10421000384000F04DB816234FF0FF302B6038BD0A
:104220001F2910B5044682B01CD8436C9BB153F8CB
:104230002120012003EB81034AB1501C09D0032047
:10424000012A04D0002408461C609047204602B092
:1042500010BD0220FBE70191FFF782FF019908B929
:10426000636CE4E74FF0FF30F1E700BF40F200037A
:104270000146C2F200031868FFF7A8BF40F200032E
:104280000A46C2F2000301461868FFF781BF00BF6B
:1042900040F20003C2F200031868FFF761BF00BFDD
:1042A00040F200030146C2F200031868FFF7B8BFEE
:1042B00038B540F29C54C2F2000405460846114647
:1042C00000232360FCF73EFA431C00D038BD23686E
:1042D000002BFBD02B6038BDFCF74EBAFCF704BBBB
:1042E000F8B540F2F404C2F200040F46054600F0AF
:1042F000E1FBA36828465E6826F0030606F57E63A8
:104300000F33DF1B3F0B013F3F03B7F5805F07DB38
:10431000002100F0D3FBA3689B199842284603D0E4
:1043200000F0CAFB0020F8BD794200F0C7FB013065
:1043300010D040F24C53A168C2F20003F61B28468D
:1043400046F001061A684E60D71B1F6000F0B4FBF0
:104350000120F8BD0021284600F0B0FBA368C21A76
:104360000F2A0DDD40F2FC4440F24C51C2F2000431
:10437000C2F2000142F001025A602368C01A0860CC
:104380002846CDE7F8B50D460446002975D000F063
:1043900091FB55F8046C40F2F400A5F10801C2F25B
:1043A000000026F00103CA18D0F808C057689445E9
:1043B00027F003077ED016F0010657604DD0002687
:1043C000D5196D6815F0010F06D1DB199568002E1F
:1043D00064D0D268EA60956043F00102CB504A6035
:1043E000002E35D1B3F5007F48D39E095A0A3836DE
:1043F000F500042A16D902F15B06F500142A11D93A
:104400001E0B6E36F500542A0CD9DE0B7736F500FC
:10441000B2F5AA7F06D940F25455AA4274D89E0C30
:104420007C36F500401940F2F405C2F200058268BE
:10443000824203D15FE09268904204D0556825F033
:104440000305AB42F7D3D368CB608A60D160996033
:104450002046BDE8F84000F02FBB55F8085C00F19D
:10446000080C491B5B198D68654542D0D1F80CC01A
:10447000C5F80CC0CCF80850A2E7F8BDDB08012550
:10448000466800EBC3029B1005FA03F3CA60956807
:10449000334343608D60E9609160D9E71C4FBD42B2
:1044A00097D1416143F001020161CD608D604A60A6
:1044B000CB50CDE7F2073B4407D455F8082C891AB6
:1044C0009B188D68CA68EA60956040F2005243F01C
:1044D0000105C2F200024D60816012689342B7D3B9
:1044E00040F248532046C2F200031968FFF7F8FE75
:1044F000AEE7012664E701276868B610134607FA9D
:1045000006F6304368609FE74FF47C757E2689E7A6
:10451000FC00002040F200030146C2F200031868CC
:1045200000F008B840F200030146C2F20003186828
:10453000FFF728BF2DE9F04F01F10B04162C83B0D3
:10454000064630D924F00704E30F8C422CBF1946ED
:1045500043F0010100292FD1304600F0ABFAB4F549
:10456000FC7F2DD24FEAD40E40F2F405C2F20005D2
:1045700005EBCE02D368934200F023825C6803F11E
:104580000807DA68304624F0030499681B195C6850
:10459000CA6044F0010491605C6000F08DFA384616
:1045A00003B0BDE8F08F002310248C422CBF1946C5
:1045B00043F001010029CFD00C2300273360EEE740
:1045C0005FEA542E04BF4FEAD40E4FEACE0140F00A
:1045D0008C8040F2F405C2F200056918CF68B94238
:1045E00006D10DE0002A80F28181FF68B94207D030
:1045F0007B6823F003031A1B0F2AF3DD0EF1FF3E45
:104600000EF1010E40F2F4002F69C2F2000000F139
:104610000802974208BF436826D07B6823F0030C4A
:10462000C4EB0C030F2B00F39C81002B4261026151
:1046300080F29580BCF5007F80F073814FEADC0C3E
:104640004FF00108436800EBCC014FEAAC0C08FACC
:104650000CF8F960D1F808C048EA03034360C7F8D2
:1046600008C0CCF80C708F6001274FEAAE0107FA42
:1046700001F79F427ED83B4206D12EF0030E7F0009
:104680000EF1040E3B42FAD005EBCE09F046CC46C3
:10469000DCF80C00844507D174E1002B80F29B818B
:1046A000C068844500F06E81416821F003010B1B56
:1046B0000F2BF2DD07460119D0F80CE044F0010899
:1046C00057F8084F43F0010CC0F804803046C1F899
:1046D00004C0C4F80CE0CEF8084069612961CA60E2
:1046E0008A60CB5000F0E8F959E7BEF1040F9EBF95
:1046F0004FEA941E0EF1380E4FEACE017FF669AFF5
:10470000BEF1140F9CBF0EF15B0E4FEACE017FF697
:1047100060AFBEF1540F9EBF4FEA143E0EF16E0E15
:104720004FEACE017FF655AFBEF5AA7F9EBF4FEA96
:10473000D43E0EF1770E4FEACE017FF64AAF40F23B
:1047400054539E4595BF4FEA944E4FF47C710EF141
:104750007C0E4FF07E0E98BF4FEACE0139E707EB93
:104760000C03304608375A6842F001025A6000F0E4
:10477000A3F914E7AF6840F2F403C2F200037A68C9
:1047800022F003084445C4EB080294BF0021012134
:104790000F2AD8BF41F00101002900F0B58040F296
:1047A000485AD3F80824C2F2000A0132DAF800307D
:1047B000234408BF03F1100B06D003F580530F33D9
:1047C00023F47E6323F01F0B3046594600F076F940
:1047D000421C814600F0318107EB0803834200F25E
:1047E0000681DAF804204B455A44CAF8042000F048
:1047F0003181D5F8080440F2F401C2F20001013021
:10480000304617BFC3EB0903C1F80894D218CAF8A1
:10481000042019F007031FBFC3F10802C3F580533A
:10482000914403F1080209EB0B0308BF4FF48052D7
:104830001B051B0DC3EB020B594600F03FF9431C4F
:1048400000F01D81C9EB0001594441F00101DAF883
:104850000420AF4240F24853C5F808905A44C2F2CF
:104860000003C9F80410CAF8042019D0B8F10F0FDA
:1048700040F2DD80A8F10C01D7F804C021F0070157
:104880004FF0050E78180F290CF0010C41EA0C0CC2
:10489000C7F804C0C0F804E0C0F808E000F2E68001
:1048A00040F24853DAF82C10C2F20003AF688A4293
:1048B000DAF8301088BFDA6240F24853C2F20003DF
:1048C0008A4288BF1A637B6823F003039C42C4EBCF
:1048D000030294BF002301230F2AD8BF43F0010332
:1048E00093B13046002700F0E7F858E6FB18FA6865
:1048F000B96830465C680837CA6044F001049160CA
:104900005C6000F0D9F84AE63B1942F0010244F03D
:10491000010430467C6008375A60AB6000F0CCF888
:104920003DE64FEA5C23042B5CD9142B78D85B332B
:10493000D800281840F2F408C2F2000881688142C9
:1049400003D160E08968884204D04B6823F00303F8
:104950009C45F7D3C8686B68F860B960CF60876022
:1049600082E6391943F00105416144F00104016117
:1049700030467C600837CA608A604D60CB5000F0DA
:104980009BF80CE608F101080CF1080C18F0030F75
:104990007FF47EAE4B461EF0030FA3F108010EF12B
:1049A000FF3E79D01B688B42F5D06B687F009F4239
:1049B0003FF6E0AE002F3FF4DDAE1F4271D0C64699
:1049C00062E603F108025B699A4208BF0EF1020E2B
:1049D0003FF418AED2E507464318C268304657F890
:1049E000081FD4E54FEA9C133833D800A1E7AF4243
:1049F00040F2F402C2F200023FF4F3AE97687B6823
:104A000023F0030362E74FF00109D8F804C09B10BC
:104A1000084609FA03F343EA0C03C8F804309BE79D
:104A2000542B0FD84FEA1C336E33D80081E7012393
:104A30004F46C9F80430002348E7AF687B6823F08D
:104A4000030343E7B3F5AA7F1DD84FEADC3377337E
:104A5000D8006EE71905090D00297FF4CAAEAB68CE
:104A60000BEB080141F00101596019E7304607F1ED
:104A700008010193FFF786FC019B5A6810E70121AA
:104A80004FF0000BE3E640F254518B420DD84FEA51
:104A90009C437C33D8004CE76B6823EA07036B60C8
:104AA00084E77F0008F1040887E74FF47C707E23D9
:104AB0003FE700BF704700BF704700BF38B540F206
:104AC0009C54C2F200040546084600232360FBF70D
:104AD0006FFE431C00D038BD2368002BFBD02B6039
:104AE00038BD00BF80B483B000AF786039603B68E8
:104AF00003F10A027B681A6007F10C07BD4680BC0F
:104B0000704700BF002100F004B80D4B5B584350C4
:104B100004310C480C4B42189A42FFF4F6AF0B4A92
:104B200000F003B8002342F8043B094B9A42FFF41B
:104B3000F9AFFBF7E5FEFFF769FAFBF7EBFB704710
:104B40007C4B0008000000202C0500202C050020D4
:104B5000A0050020FFF7FEBF43000000F8B500BF2E
:104B6000F8BC08BC9E467047F8B500BFF8BC08BC4E
:044B70009E467047A6
:044B7400FD01000837
:044B7800D10100085F
:104B7C000400002000000000000000000000000005
:104B8C000000000000000000000000000000000019
:104B9C0000000000584B000800000000000000005E
:104BAC0000000000000000000000000000000000F9
:104BBC0000000000000000000000000000000000E9
:104BCC0000000000000000000000000000000000D9
:104BDC0000000000000000000000000000000000C9
:104BEC0000000000000000000000000000000000B9
:104BFC0000000000000000000000000000000000A9
:104C0C000000000000000000000000000000000098
:104C1C000000000000000000000000000000000088
:104C2C000000000000000000000000000000000078
:104C3C000000000000000000000000000000000068
:104C4C000000000000000000000000000000000058
:104C5C000000000000000000000000000000000048
:104C6C00000000000000000000000000F400002024
:104C7C00F4000020FC000020FC00002004010020B7
:104C8C00040100200C0100200C0100201401002064
:104C9C00140100201C0100201C0100202401002014
:104CAC00240100202C0100202C01002034010020C4
:104CBC00340100203C0100203C0100204401002074
:104CCC00440100204C0100204C0100205401002024
:104CDC00540100205C0100205C01002064010020D4
:104CEC00640100206C0100206C0100207401002084
:104CFC00740100207C0100207C0100208401002034
:104D0C00840100208C0100208C01002094010020E3
:104D1C00940100209C0100209C010020A401002093
:104D2C00A4010020AC010020AC010020B401002043
:104D3C00B4010020BC010020BC010020C4010020F3
:104D4C00C4010020CC010020CC010020D4010020A3
:104D5C00D4010020DC010020DC010020E401002053
:104D6C00E4010020EC010020EC010020F401002003
:104D7C00F4010020FC010020FC01002004020020B2
:104D8C00040200200C0200200C020020140200205F
:104D9C00140200201C0200201C020020240200200F
:104DAC00240200202C0200202C02002034020020BF
:104DBC00340200203C0200203C020020440200206F
:104DCC00440200204C0200204C020020540200201F
:104DDC00540200205C0200205C02002064020020CF
:104DEC00640200206C0200206C020020740200207F
:104DFC00740200207C0200207C020020840200202F
:104E0C00840200208C0200208C02002094020020DE
:104E1C00940200209C0200209C020020A40200208E
:104E2C00A4020020AC020020AC020020B40200203E
:104E3C00B4020020BC020020BC020020C4020020EE
:104E4C00C4020020CC020020CC020020D40200209E
:104E5C00D4020020DC020020DC020020E40200204E
:104E6C00E4020020EC020020EC020020F4020020FE
:104E7C00F4020020FC020020FC02002004030020AD
:104E8C00040300200C0300200C030020140300205A
:104E9C00140300201C0300201C030020240300200A
:104EAC00240300202C0300202C03002034030020BA
:104EBC00340300203C0300203C030020440300206A
:104ECC00440300204C0300204C030020540300201A
:104EDC00540300205C0300205C03002064030020CA
:104EEC00640300206C0300206C030020740300207A
:104EFC00740300207C0300207C030020840300202A
:104F0C00840300208C0300208C03002094030020D9
:104F1C00940300209C0300209C030020A403002089
:104F2C00A4030020AC030020AC030020B403002039
:104F3C00B4030020BC030020BC030020C4030020E9
:104F4C00C4030020CC030020CC030020D403002099
:104F5C00D4030020DC030020DC030020E403002049
:104F6C00E4030020EC030020EC030020F4030020F9
:104F7C00F4030020FC030020FC03002004040020A8
:104F8C00040400200C0400200C0400201404002055
:104F9C00140400201C0400201C0400202404002005
:104FAC00240400202C0400202C04002034040020B5
:104FBC00340400203C0400203C0400204404002065
:104FCC00440400204C0400204C0400205404002015
:104FDC00540400205C0400205C04002064040020C5
:104FEC00640400206C0400206C0400207404002075
:104FFC00740400207C0400207C0400208404002025
:10500C00840400208C0400208C04002094040020D4
:10501C00940400209C0400209C040020A404002084
:10502C00A4040020AC040020AC040020B404002034
:10503C00B4040020BC040020BC040020C4040020E4
:10504C00C4040020CC040020CC040020D404002094
:10505C00D4040020DC040020DC040020E404002044
:10506C00E4040020EC040020EC040020FFFFFFFF10
:10507C000000020000366E0100000000000000007D
:10508C0001020304060708090000000001020304E2
:0C509C00010203040607080902040608CC
:0400000508004B059F
:00000001FF
